:020000040800F2
:1000000068060020010100084D1D0008271A00089D
:10001000E51C000813060008CD22000800000000BF
:10002000000000000000000000000000B31D0008F8
:100030001506000800000000B11D0008E91E0008B8
:100040001B0100081B0100081B0100081B01000820
:100050001B0100081B0100081B0100081B01000810
:100060001B0100081B0100081B0100081B01000800
:100070001B0100081B0100081B0100081B010008F0
:100080001B0100081B0100081B0100081B010008E0
:100090001B0100081B0100081B0100081B010008D0
:1000A0001B0100081B0100081B0100081B010008C0
:1000B0004D1F00081B010008591F00081B01000804
:1000C0001B0100081B0100081B0100081B010008A0
:1000D0001B0100081B0100081B0100081B01000890
:1000E0001B0100081B0100081B010008DFF80CD0F1
:1000F00000F06EFA004800478923000868060020D7
:100100000648804706480047FEE7FEE7FEE7FEE7B1
:10011000FEE7FEE7FEE7FEE7FEE7FEE74B1F00080F
:10012000ED000008202A04DB203A21FA02F0002129
:10013000704721FA02F3D040C2F1200291400843F7
:1001400019467047D2B201E000F8012B491EFBD2DC
:1001500070470022F6E710B513460A4604461946D2
:10016000FFF7F0FF204610BDF0B480EA0102D40F83
:100170004200B2EB410F02D20246084611464A0045
:1001800042D0C30DDDB2C1F3C752AD1A202D35DA0E
:10019000C1F3160141F4000204B15242C5F1200638
:1001A00002FA06F12A411044B3EBD05F23D0C4B168
:1001B000012DA0EBC35009DCF0BC4FF0004202EA75
:1001C000C352DBB200F5000000F077B9400000F147
:1001D000807000EBC350A0F1807040EAD1704900FC
:1001E00009E0490841EAC071A0EBC35000F50000E6
:1001F000400800EBC350F0BC00F056B96142012248
:1002000002EB4101001BF6E7F0BC704781F00041B2
:10021000AAE780F00040A7E780EA010210B502F0EB
:100220000043400022D04A001FD0010E01EB1261B2
:10023000C0F35600C2F3560240F4000042F400023C
:10024000A0FB022000047F39140400D0401C50EAB7
:10025000124001D44000491EC2B20C0604EBD0107B
:10026000401C4008802A02D003E0002010BD20F08E
:100270000100002900DA0020184310BD30B480EAE4
:10028000010202F0004530F0004221F0004013D09E
:1002900090B1C30DD40DC2F31601C0F31600E41AD9
:1002A00041F4000140F400027D34914201D3641C0A
:1002B00000E04900002C02DA30BC002070474FF407
:1002C00000000023914201D3891A034340084FEAFA
:1002D0004101F7D151B1914202D14FF0004105E007
:1002E00002D24FF0010101E06FF0010103EBC450B5
:1002F000284430BC00F0D8B82DE9FE4F81EA030451
:1003000004F0004421F0004100944FF0000B23F072
:10031000004350EA01045ED052EA03045BD0C3F309
:100320000A54C1F30A552C44A4F2F3340194A0FBFF
:100330000254C1F3130141F48011C3F3130343F4D6
:10034000801301FB024400FB034E840A970A44EA2F
:10035000815447EA8357A4FB076802958D0A05FB81
:1003600007854FEA932C04FB0C542705029D4FEAA6
:10037000065847EA1637B5EB08056EEB070C870EF3
:10038000920E47EA811742EA8312A7FB0201B6EBFD
:100390000B0164EB00042B0D43EA0C335E1844EBB5
:1003A0001C50DA465146E7FB0201C5F313044FEA3D
:1003B0000B3343EA14534FEA0432019C43EA060329
:1003C000A4F10C040294009CCDE900B400F0B2F852
:1003D00003B0BDE8F08F00200146F9E7C10F80EAC5
:1003E000E0700844CA079623002100F066B89623FF
:1003F0000022114600F061B820F00040C10DC0F3AA
:10040000160040F400007F2901DA00207047962989
:1004100003DCC1F19601C8407047963988407047A7
:1004200000F0004230F000400AD0C10D01F56071CB
:10043000C0F3160042EA0151C20840071143704759
:1004400000200146704701F0004330B421F0004124
:1004500050EA010206D00A0DA2F56072C1F3130141
:10046000002A02DC30BC00207047440F44EAC1047B
:10047000C100E01830BC00EBC25000F015B800001D
:10048000002801DBC0F10040002901DBC1F100417F
:1004900081427047002801DBC0F10040002901DBE8
:1004A000C1F10041884270470029A8BF7047401C35
:1004B000490008BF20F00100704710B4B0FA80FC7A
:1004C00000FA0CF050EA010404BF10BC704749B1B7
:1004D000CCF1200421FA04F411FA0CF118BF012127
:1004E00021430843A3EB0C01CB1D4FEA00614FEA07
:1004F000102042BF002010BC704700EBC3501044D6
:100500000029A4BF10BC7047401C490008BF20F060
:10051000010010BC704710B5141E73F1000408DA16
:10052000401C41F1000192185B411A4301D120F0B7
:10053000010010BD2DE9F04D92469B4611B1B1FA74
:1005400081F202E0B0FA80F22032904600F052F8D8
:1005500004460F4640EA0A0041EA0B0153465A4658
:10056000084313D0114653EA010019D0C8F14002E4
:100570005046FFF7D7FD05460E46504659464246BF
:1005800000F038F8084305D0012004E02046394641
:10059000BDE8F08D0020054346EAE0762C43374362
:1005A0000A986305E40AA0EB08000022FD0A44EA69
:1005B00047540A3002D500200146E9E70105101929
:1005C0006941DDE9084500196941BDE8F04DA2E740
:1005D000064C074D06E0E06840F0010394E8070090
:1005E00098471034AC42F6D3FFF784FDC8260008C4
:1005F000E8260008202A04DB203A00FA02F1002055
:1006000070479140C2F1200320FA03F31943904050
:100610007047FEE7704772B6FEE7000070B504460B
:1006200000F008F90546601C02D004480078044434
:1006300000F000F9401BA042FAD370BD2C0000204E
:100640002DE9F84FDFF8B8910024A9F1040B2346F7
:100650000F2709F1040AABF1040EC9E00125A540FA
:100660002A40AA427DD1674ED1F804C0ACEB0608FF
:10067000B44532D014DCBCF1030F3AD009DCBCF134
:10068000000F2AD0BCF1010F1CD0BCF1020F31D1F8
:100690001DE0BCF1110F17D0BCF1120F2AD119E0E7
:1006A000B8F5881F19D006DCB8F5803F15D0B8F52D
:1006B000801F1FD111E0B8F5001F0ED0B8F5041F40
:1006C00018D10AE0CB6815E0CB681B1D12E0CB689F
:1006D00008330FE0CB680C330CE08B682BB1012B97
:1006E0004FF0080303D0456104E0042302E00561F4
:1006F00000E00023FF2A01D8064601E000F10406CD
:100700004FEA840501D9A5F12005D6F8008007FA43
:1007100005FC28EA0C0803FA05F548EA0508C6F8BE
:1007200000804D68ED0062D5374DAE6946F0010698
:10073000AE61AD6924F0030605F001050095334D67
:1007400006EB050CDCF80850A607360F07FA06F88A
:1007500025EA0805DFF8B880404503D14FF00008CE
:1007600017E044E0DFF8AC80404502D14FF00108CB
:100770000FE0DFF8A480404502D14FF0020808E006
:10078000DFF89880404502D14FF0030801E04FF0B8
:10079000040808FA06F848EA0508CCF808804D680D
:1007A000D9F80060ED024D4601D5164300E09643AE
:1007B0002E604D68DAF80060AD02554601D516434B
:1007C00000E096432E604D68DBF80060AD035D46A7
:1007D00001D5164300E096432E604D68DEF80060B8
:1007E000ED03754601D5164300E096432E60641C68
:1007F0000D682A46E5407FF431AFBDE8F88F000070
:1008000008040140000011100010024000000140E7
:1008100000080140000C014000100140001401409C
:100820008068084000D0012070470AB1016170471C
:100830000904FBE701488068704700002C00002095
:100840000248816802781144816070472C000020C2
:10085000074810B5016841F010010160032000F065
:1008600075F80F2000F006F800F024F8002010BD05
:100870000020024070B50D4D04464FF47A7128787F
:10088000B1FBF0F00A490968B1FBF0F000F0DCFAC6
:1008900048B9102C07D200222146501E00F036F82D
:1008A00000206C6070BD012070BD00002C00002095
:1008B000380000200C4808B5816941F001018161D0
:1008C000816901F001010091C16941F08051C1616C
:1008D000C06900F0805000900448416821F0E06158
:1008E00041F00071416008BD00100240000001406D
:1008F000002809DB00F01F0201219140400980001F
:1009000000F1E020C0F8001170470000F0B40E4B79
:100910001B680C46C3F30223C3F10705042D00D95D
:100920000425191D072901D2002300E0DB1E012642
:1009300006FA05F1491E214099409E40761E164058
:100940003143F0BC01F0CCBC0CED00E0064900F0F6
:10095000070208684FF6FF03184040EA0220034AE6
:1009600010430860704700000CED00E00000FA053D
:100970002DE9F0470F46050061D0434E306800F086
:100980000700B84209D2306820F0070038433060D1
:10099000306800F00700B84251D128683B4C81070D
:1009A00012D5400703D5606840F4E06060602878A5
:1009B000000703D5606840F4605060606068A96813
:1009C00020F0F000084360602878C00728D06868ED
:1009D000012810D02168022810D0890700292EDABA
:1009E000616821F0030101436160FFF723FF804646
:1009F00041F288390DE021688903EFE78901EDE7CD
:100A0000FFF718FFA0EB0801494502D90320BDE814
:100A1000F0876068696800F00C00B0EB810FEFD1DF
:100A2000306800F00700B8420BD9306820F00700AA
:100A300038433060306800F00700B84201D0012030
:100A4000E5E72878400705D56068E96820F4E060AC
:100A5000084360602878000706D56068296920F49B
:100A6000605040EAC100606000F038F86168084AF0
:100A7000C1F30311515CC84006490860064800688C
:100A8000FFF7F8FE0020C2E70020024000100240FD
:100A9000AE26000838000020300000200448054938
:100AA00000684968044AC1F30221515CC84070479C
:100AB0003800002000100240BE2600080448054906
:100AC00000684968044AC1F3C221515CC8407047BC
:100AD0003800002000100240BE2600080E4A51686F
:100AE0000E4801F00C03042B11D0082B0FD10C4839
:100AF000C1F38343C903C05C0AD55168084AC1F3F6
:100B00004041921E515C054A5043B0FBF1F07047E2
:100B100004494843704700000010024000127A0068
:100B20009E26000800093D002DE9F84F040070D012
:100B30002078C04DC00749D06868C0F38100012803
:100B400007D06868C0F38100022809D16868C00333
:100B500006D52868800339D560680028E7D035E0DD
:100B60006068B0F5803F0BD010B1B0F5A02F11D068
:100B7000286820F480302860286820F4802002E073
:100B8000286840F480302860606890B1FFF752FE1A
:100B900006460AE0286840F480202860F0E700BF9D
:100BA000FFF748FE801B642873D828688003F7D5B8
:100BB0000CE0FFF73FFE064605E000BFFFF73AFEF8
:100BC000801B6428F0D828688003F7D420789A4ED8
:100BD00080074FF001094FF0000839D5686810F020
:100BE0000C0F07D06868C0F38100022809D168683B
:100BF000C00306D42868800714D52069012808D1CD
:100C000010E02069B0B1C6F80090FFF713FE074668
:100C100005E00AE1FFF70EFEC01B0228C4D82868D1
:100C20008007F7D52868616920F0F80040EAC10024
:100C300028600DE0C6F80080FFF7FCFD074604E0E1
:100C4000FFF7F8FDC01B022823D828688007F7D4D7
:100C5000207800072CD57948A169D9B1C0F8009057
:100C6000FFF7E8FD074604E0FFF7E4FDC01B02289C
:100C70000FD8686A8007F7D571484FF4FA510068B9
:100C8000B0FBF1F0009000BF0098411E0091FAD235
:100C90000EE080E0C0F80080FFF7CCFD074604E0DE
:100CA000FFF7C8FDC01B022875D8686A8007F7D413
:100CB0002078400760D5E8690027C00008D4E869BB
:100CC00040F08050E861E869012700F08050009012
:100CD0005C480168C90513D40168834641F48071FA
:100CE0000160FFF7A7FD824606E000BFFFF7A2FD07
:100CF000A0EB0A0064284ED8DBF80000C005F5D54B
:100D0000E06801280AD008B1052813D0286A20F02D
:100D100001002862286A20F0040002E0286A40F0FE
:100D200001002862E06841F2883B98B1FFF782FD3C
:100D300082460BE0286A40F004002862EEE700BF1C
:100D4000FFF778FDA0EB0A0159455AD8286A8007B9
:100D5000F6D50CE0FFF76EFD824605E0FFF76AFD71
:100D6000A0EB0A0159454CD8286A8007F6D41FB178
:100D7000E86920F08050E861E06988B36968C1F3F0
:100D80008101022944D00228C6F8608004D0FFF710
:100D900051FD044638E034E0FFF74CFD074604E01F
:100DA000FFF748FDC01B02282BD828688001F7D424
:100DB000206AB0F5803F05D16868A16820F4003052
:100DC00008436860D4E908010843696821F4741194
:100DD00008436860C6F86090FFF72CFD044606E003
:100DE00025E000BFFFF726FD001B022809D8286870
:100DF0008001F7D51BE000BFFFF71CFD001B022898
:100E000002D90320BDE8F88F28688001F4D40EE0F1
:100E10000128F7D06868226A00F48031914204D139
:100E2000616A00F47010884201D00120EAE70020D6
:100E3000E8E7000000100240000042428004424205
:100E4000380000200070004010B5401EB0F1807FD7
:100E500001D3012010BD4FF0E02460610F21601725
:100E600001F03EFA0020A06107202061002010BDA3
:100E70007047704770B590F83C20012A26D00124B5
:100E800080F83C40022280F83D2003685A689D6843
:100E900022F070060A6832435A600D4B02689A428B
:100EA00008D0B2F1804F05D00A4B9A4202D00A4BCB
:100EB0009A4204D1496825F080031943916080F873
:100EC0003D40002180F83C10084670BD022070BDF6
:100ED000002C0140000400400008004010B5040050
:100EE00003D094F83D0010B107E0012010BD0020B0
:100EF00084F83C00204600F01FF8022084F83D00F2
:100F0000211D206801F02EF8012084F8460084F8A5
:100F10003E0084F83F0084F8400084F8410084F8E3
:100F2000420084F8430084F8440084F8450084F8C3
:100F30003D00002010BD000008B5114A01681148AD
:100F4000914208D1C16941F00201C161C06900F05C
:100F50000200009008BD0C4A9142FBD1C16941F0EA
:100F60000401C161C069002200F004000090012169
:100F70001E20FFF7CBFCBDE808401E20FFF7B8BCE1
:100F800000040040001002400008004090F83D10AE
:100F9000012901D001207047022180F83D1001682D
:100FA000CA6842F00102CA6000680B49884208D052
:100FB000B0F1804F05D00949884202D008498842E3
:100FC00004D1816801F00701062903D0016841F0CE
:100FD0000101016000207047002C01400004004026
:100FE0000008004070B5044690F83C000025012838
:100FF00017D0012684F83C60022084F83D00206868
:10100000826822F0770222F47F42826008685028CA
:1010100038D00DDC20284FD005DC90B3102811D13A
:101020004AE0022070BD302846D040280AD13BE07B
:1010300060282FD070280DD0B0F5805F03D0B0F5B8
:10104000005F12D0012584F83D60002084F83C0048
:10105000284670BDCB68D1E90121206800F0C5FFAA
:101060002068816841F0770109E0CB68D1E901216E
:10107000206800F0BAFF2068816841F480418160F7
:10108000E1E719E0CA684968206801F063F8502177
:10109000206806E0CA684968206801F06CF86021A1
:1010A000206800F0ACFFCEE7CA684968206801F00C
:1010B00051F840212068F4E7226801461046F0E725
:1010C0002DE9F0410D46040003D094F83D0018B11D
:1010D00008E00120BDE8F081002084F83C002046B3
:1010E00000F040F8022084F83D002068816844F256
:1010F000070291438160211D206800F033FF2268C0
:1011000090689169166A2B68AF69034340F2033017
:10111000814341EA0721A868EF6908434FF6FC4183
:101120008843E96840EA0720014328692F6A0001E3
:1011300040EA0730084369686D6926F0220646EAEE
:101140000515294393602268906154F8460B0162AB
:10115000012004F81F09E0752076E0762077A0755D
:101160000020B7E710B586B00021009101910291EF
:101170000391214C0368214901222148A34218D13F
:101180008B6943F400638B618B6903F40063049300
:101190008B6943F004038B618969029201F00401B9
:1011A00004914FF4407100916946FFF749FA06B087
:1011B00010BDB3F1804FFAD1CB6943F00103CB618D
:1011C000CB6903F0010304938B6943F004038B6143
:1011D0008969029201F0040104910321009169469A
:1011E000FFF72EFA002211461C20FFF78FFB1C2070
:1011F000FFF77EFBDBE70000002C014000100240FF
:101200000008014070B590F83E60044690F83F50E9
:1012100090F8423090F84320022021B104290ED0EA
:10122000012E1BD114E0012E18D1012B16D184F808
:101230003E0084F8420001220021206820E0012DB8
:101240000CD1012A0AD184F83F0084F8430014E04D
:10125000012D03D1012B01D1012A01D0012070BD44
:1012600084F83E0084F83F0084F8420084F843008C
:1012700001220021206800F0ABFE01220421206839
:1012800000F0A6FE2068016841F001010160002025
:1012900070BD704770B50446006801694FF00005E5
:1012A000C943890715D4C168C943890711D4E91E08
:1012B000016101202077206880698007204602D0E4
:1012C000FFF7E7FF04E000F0D1F8204600F063F9F3
:1012D000257720680169C943490717D4C168C94304
:1012E000490713D46FF004010161022020772068C0
:1012F000806910F4407F204602D0FFF7CAFF04E067
:1013000000F0B4F8204600F046F92577206801691E
:10131000C943090716D4C168C943090712D46FF03D
:1013200008010161042020772068C06980072046F9
:1013300002D0FFF7AEFF04E000F098F8204600F07E
:101340002AF9257720680169C943C90617D4C168FD
:10135000C943C90613D46FF010010161082020773A
:101360002068C06910F4407F204602D0FFF791FF4B
:1013700004E000F07BF8204600F00DF925772068A6
:101380000169C943C90708D1C168C943C90704D164
:10139000891E0161204600F04DF920680169C943AA
:1013A000090609D4C168C943090605D46FF0800154
:1013B00001612046FFF75CFD20680169C9434906C9
:1013C00009D4C168C943490605D46FF040010161E1
:1013D000204600F011FA20680169C94389060BD440
:1013E000C168C943890607D46FF020010161204616
:1013F000BDE87040FFF73DBD70BD000010B586B080
:1014000000210091019102910391006813498842E3
:1014100021D11348816941F004018161816901F0A2
:1014200004010491816941F008018161806902240D
:1014300000F008000490C020CDE900046946094886
:101440000394FFF7FDF80320CDE900046946064840
:101450000394FFF7F5F806B010BD0000000400404B
:101460000010024000080140000C0140704770B5B8
:10147000044690F83C0000260D4601280FD00120BC
:1014800084F83C006AB1042A1DD0082A2FD00C2A07
:101490003FD00126002084F83C00304670BD022079
:1014A00070BD206800F0B4FD2068816941F008013A
:1014B00081612068816921F004018161206881696E
:1014C0002A69114311E0206800F0CAFD2068816993
:1014D00041F4006181612068816921F4806181614A
:1014E000206881692A6941EA02218161D2E7206886
:1014F00000F0E2FD2068C16941F00801C161206887
:10150000C16921F00401C1612068C1692A691143E0
:1015100011E0206800F0FCFD2068C16941F4006121
:10152000C1612068C16921F48061C1612068C1691D
:101530002A6941EA0221C161ACE710B5040003D079
:1015400094F83D0010B107E0012010BD002084F8A0
:101550003C00204600F01EF8022084F83D00211DCA
:10156000206800F0FFFC012084F8460084F83E006B
:1015700084F83F0084F8400084F8410084F8420079
:1015800084F8430084F8440084F8450084F83D0062
:10159000002010BD7047704710B50446022249B1C3
:1015A00004290ED0082913D094F84100012816D040
:1015B000012010BD94F83E000128F9D184F83E20A6
:1015C0000FE094F83F000128F2D184F83F2008E0B2
:1015D00094F840000128EBD184F8402001E084F821
:1015E00041200122206800F0F3FC0F492068884266
:1015F00003D1426C42F4004242642068884208D021
:10160000B0F1804F05D00949884202D0084988428C
:1016100004D1816801F00701062903D0016841F077
:1016200001010160002010BD002C014000040040B9
:10163000000800402DE9F05F6249006809688842AF
:101640007AD1DFF884A1DAF8000001685F4CC1F3B9
:1016500000112174426AB4F90810C36A44F63826AE
:1016600001FB0322626023689D1AB54201DD491C1B
:1016700005E0D21AB24201DC606807E0491E09B2F7
:101680002181426AC06A01FB00206060C01AFEF737
:10169000A5FE4F49FEF7F2FD4E49FEF7BDFD4E494E
:1016A000E06000F087FBE060DFF83091616802469F
:1016B00021604D464A48D9F80C1000F099FB28608B
:1016C000494DDFF820B142F210772968584509D218
:1016D0008F6301464548FEF799FDFEF78DFE2968A8
:1016E000486307E04F634149FEF73EFDFEF784FE85
:1016F000296888633E4800680068DFF8F880C0F316
:10170000001088F81000DAF80000426AB8F90810F2
:10171000C36A01FB0322C8F80420D8F80030A3EB09
:10172000020CB44509DD491C09B2A8F80810426A48
:10173000C06A01FB00200FE038E0D21AB24202DC9E
:10174000D8F804000AE0491EA8F80810416AB4F964
:101750000820C06A02FB0010C8F80400C01AFEF797
:101760003DFE1B49FEF78AFD1A49FEF755FD1A4951
:10177000C8F80C0000F01EFBC8F80C00D8F80410E4
:101780000246C8F800104C461548D9F8101000F071
:101790002FFB6060296858450AD2CF630146134881
:1017A000FEF734FDFEF728FE29680864BDE8F09FC7
:1017B0000F640E49FEF7D8FCFEF71EFE2968C863C9
:1017C000F4E70000D801002048010020D8000020E4
:1017D0000080F74400803B454000002000000020CE
:1017E00090000020000080809001002000401C46F6
:1017F00000010020EC000020704770B5040004D008
:1018000094F84100002510B106E0012070BD84F875
:101810004050204600F024F8242084F8410020683D
:10182000C16821F40051C160204600F0B7FC206877
:10183000016921F4904101612068416921F02A0188
:1018400041612068C16841F40051C1606564202095
:1018500084F8410084F842006563002070BD0000F8
:1018600030B585B00024009401940294039400687C
:10187000174988422AD11748816941F48041816122
:10188000816901F480410491816941F0080181611D
:101890008069114D00F00800049040200090022063
:1018A00001900320039069462846FEF7C9FE802078
:1018B000CDE90004694628460294FEF7C1FE0748B8
:1018C000416841F0E06141F00401416005B030BD84
:1018D0000038014000100240000C014000000140AF
:1018E0002DE9F843044690F84200994616460D4605
:1018F000202802D00220BDE8F883ADB1A6B10020B7
:101900006064222184F842102063FEF793FFA685CD
:101910008046E685A0684FF48057B84201D120691F
:1019200020B12E46002526E00120E4E7002622E033
:101930004346002220212046CDF8009000F08AFC8A
:1019400008B10320D7E726B1A068B8421BD038B150
:1019500008E020684068C0F3080025F8020B07E0A3
:10196000206980B12068406800F07F0006F8010B14
:10197000E08D401EE085E08D0028D9D1202084F83C
:1019800042000020B7E720684068EFE72DE9F84300
:10199000044690F841001F4616460D46202802D006
:1019A0000220BDE8F8837DB176B10020606421207B
:1019B00084F84100FEF73EFFA6848046E684A068D6
:1019C000B0F5805F02D003E00120EAE7206910B1A2
:1019D0002E4600250EE000260CE08021204600F077
:1019E00039FCA0B9AEB116F8010B21684860E08C53
:1019F000401EE084E08C43464FF000020097002830
:101A0000EBD14FF04001204600F024FC30B1032020
:101A1000C7E735F8020BC0F30800E6E7202084F89A
:101A200041000020BDE7FEE730B585B000241C482A
:101A30000094019402940394816941F02001816132
:101A4000816901F020010491816941F00401816103
:101A5000816901F004010491816941F0080181610B
:101A60008069104D00F008000490002218212846DB
:101A7000FEF7DBFE0420CDE9000469462846029407
:101A8000FEF7DEFD182000900120CDE901040220C0
:101A9000039069462846FEF7D3FD05B030BD00002F
:101AA000001002400008014010B58CB024216846A7
:101AB000FEF74FFB00241648099414490A94C0E924
:101AC000001444F62061C0E902410461446184616C
:101AD0000320CDE900040120CDE902040494CDE9FE
:101AE0000540079469460A480894FFF7E9FA08B1E7
:101AF000FEF791FD099409A905480A94FFF7BAF980
:101B0000002801D0FEF787FD0CB010BD002C01406D
:101B10000001002010B58CB024216846FEF719FBA7
:101B20000024154809944FF080410A94C0E900143C
:101B300044F62061C0E90241046184610320CDE9DB
:101B400000040120CDE902040494CDE90540079486
:101B5000694609480894FFF7B3FA08B1FEF75BFD40
:101B6000099409A904480A94FFF784F9002801D0D0
:101B7000FEF751FD0CB010BD4801002010B58EB02D
:101B800000240794089409940A940B941C21684635
:101B90000C94FEF7DEFA2A48284901604721C0E983
:101BA000011442F20F71C0E903148461FFF796F942
:101BB00008B1FEF730FD4FF48050079007A9204888
:101BC000FFF710FA08B1FEF726FD1D48FFF7B5FC38
:101BD00008B1FEF720FD0B940BA919480C94FFF7F0
:101BE00049F908B1FEF717FD6020CDE90004029421
:101BF0000022694612480494FFF739FC08B1FEF749
:101C00000AFD042269460E48FFF731FC08B1FEF7D1
:101C100002FD082269460A48FFF729FC08B1FEF7D1
:101C2000FAFC0C2269460648FFF721FC08B1FEF7D2
:101C3000F2FC0348FFF7E2FB0EB010BD00040040C9
:101C40009001002010B586B000241748009401943C
:101C500002940394049413490594016040F2CF2147
:101C6000C0E9011442F21071C0E903148461FFF766
:101C700035F908B1FEF7CFFC4FF48050009069466B
:101C80000948FFF7AFF908B1FEF7C5FC049404A9B1
:101C900005480594FFF7EEF8002801D0FEF7BBFCDD
:101CA00006B010BD00080040D80100200C4810B557
:101CB0000A4901604FF4E1314160002181600C224A
:101CC000C160C0E904128161C161FFF796FD00287F
:101CD00003D0BDE81040FEF79EBC10BD00380140A7
:101CE00020020020FEE7000010B53C211348FFF75A
:101CF00089FA124C2068C16841F00101C1601048A6
:101D0000FFF744F904210F48FFF746FC00210D4876
:101D1000FFF742FC08210B48FFF73EFC0C21094865
:101D2000FFF73AFC216842F2107048620649002031
:101D3000086048600881C860087410BD4801002030
:101D4000D801002090010020D8000020FEE700000C
:101D50002DE9F041124D00241248EC60C5E9054020
:101D600011480668F06AFEF742FB2C61C5E907409E
:101D70004FF08047C5E90074AC6024350B48EC6037
:101D8000C5E90540F06AFEF732FB2F602C61C5E91A
:101D900007404FF07E50C5E90104BDE8F081000026
:101DA0009000002000007A44900100200000A04232
:101DB0007047704770B5064600200D465FF013046B
:101DC00005EB840151F8041C45F82410FEF7CCF90A
:101DD000641E14F0FF04F3D1014630462E60FEF776
:101DE000C3F9BDE870400149FEF748BA0000A041C0
:101DF0002DE9F0470E46044611463046FEF706FA36
:101E000036490025E060884203DA3549884200D827
:101E1000E560E1686069FEF7A7F901466061A069C5
:101E200080F000476068FEF7F7F93946FEF728FBB7
:101E300004D2A069616880F0004009E061696068CF
:101E4000FEF7EAF9A169FEF725FB04D26168A069F3
:101E5000FEF714FA606116F0FF4F00D16561D4E916
:101E600003713846FEF7D2F9A168FEF7D5F980462E
:101E700061696068FEF7D0F9814639462068FEF74F
:101E8000CBF94946FEF770F94146FEF76DF9154961
:101E9000E0618E4207D2884216D2216AFEF7FAFA32
:101EA00013D2206A0AE0216A81F0004201461046FE
:101EB000FEF7F0FA04D2206A80F00040E06104E00E
:101EC000E069B0F5000F00DBE561E06816F0FF4F58
:101ED000206100D1E561E069BDE8F0879A99993EFB
:101EE0009A9999BE00008080FEF7AABC30B58FB0E9
:101EF00028216846FEF72DF914210AA8FEF729F9D2
:101F000001210804CDE90010002402940225049167
:101F1000CDE907504FF4E01009906846FEF704FE43
:101F200008B172B6FEE70F20CDE90A054FF48060D4
:101F3000CDE90C4002210AA80E94FEF719FD0028F5
:101F400001D072B6FEE70FB030BD70470148FFF711
:101F5000A1B90000480100200148FFF79BB900002B
:101F6000D8010020F0B50268164B174C174D4FF002
:101F70008047984205D0B84203D0A04201D0A84281
:101F800003D122F070064A683243984205D0B84225
:101F900003D0A04201D0A84203D122F44074CA6801
:101FA00022434C6922F08002224302608A68C262A6
:101FB0000A688262984201D1096901630121416185
:101FC000F0BD0000002C014000040040000800406B
:101FD00010B501F01F030121046A99408C4304628B
:101FE000016A9A401143016210BD10B5846842EA4B
:101FF000032224F47F440A432243826010BD826896
:1020000022F070020A4342F007018160704700002D
:1020100030B5036A026A22F00102026242688469F2
:1020200024F073050C682C4323F002058B682B43C6
:102030000A4DA8420BD123F00805CB6822F4407268
:102040002B434D6923F0040315438A692A434260F8
:10205000846149684163036230BD0000002C014087
:1020600030B5026A036A23F010030362436884698F
:102070000D6824F4E64444EA05248D6822F0200229
:1020800042EA05120B4DA8420ED1CD6822F0800223
:1020900042EA05124D6923F4406343EA85038D69E2
:1020A00022F0400243EA850343608461496881630A
:1020B000026230BD002C014030B5036A026A22F48E
:1020C000807202624268C46923F4007324F07305CD
:1020D0000C682C438D6843EA05230C4DA8420ED1B1
:1020E000CD6823F4006343EA05234D6922F440528E
:1020F00042EA05128D6923F4806342EA05124260C8
:10210000C4614968C163036230BD0000002C014016
:1021100030B5046A026A22F4805202624268C369DE
:102120000D6823F4E64343EA05238D6824F4005444
:1021300044EA0534064DA84204D14D6922F4804298
:1021400042EA85124260C36149680164046230BD9D
:10215000002C014010B5036A046A24F001040462F3
:10216000846924F0F00444EA021423F00A020A43CA
:102170008461026210BD10B5036A046A24F0100481
:102180000462846923F0A00324F4704444EA023218
:1021900043EA01118261016210BD000070B504467E
:1021A00000680169E26821F440511143016121692D
:1021B000A0680843616908432168CA6841F20C635A
:1021C0009A430243CA6020684169A26921F44071C0
:1021D000114341611E492068884202D1FEF76EFC1E
:1021E00001E0FEF75BFC00EBC00101EB0012606850
:1021F00064218000B2FBF0F3B3FBF1F36FF018063B
:102200007343B2FBF0F5B2FBF0F605EB8305322326
:1022100003EB0515B5FBF1F5B6FBF1F605F0F0059E
:1022200005EB0615B2FBF0F6B2FBF0F0B0FBF1F0F7
:102230006FF01802504306EB800003EB0010B0FB78
:10224000F1F0216800F00F002844886070BD0000A4
:10225000003801402DE9F041984617460E460446E5
:10226000069D27E0681C25D02DB1FEF7E3FAA0EB10
:102270000800A8421ED920680C3050E8001F21F445
:10228000D07140E80012002AF5D12068143050E8DF
:10229000001F21F0010140E80012002AF5D12020A2
:1022A00084F8410084F84200002084F840000320B4
:1022B000BDE8F0812068006836EA000004D0002004
:1022C000B842CFD00020F3E70120F9E7FEE7000095
:1022D000014A024900F023B8452300083C000020D1
:1022E0000907090E002804DB00F1E02080F8001443
:1022F000704700F00F0000F1E02080F8141D7047D7
:1023000002E008C8121F08C1002AFAD170477047BE
:10231000002001E001C1121F002AFBD170472DE906
:10232000F04116460F460446002503E03946B04703
:10233000641C6D1C20780028F8D12846BDE8F08187
:102340007047000013B54FF6FF730122694602483B
:10235000FFF71CFB00981CBD20020020042101484F
:10236000FEF75EBA00080140002208210148FEF78E
:102370005CBA000000080140012208210148FEF774
:1023800054BA000000080140FEF762FAFFF7AEFD04
:10239000FFF74AFBFFF7BEFBFFF7F0FBFFF752FC2E
:1023A000FFF784FCFFF780FBFFF79EFCFFF7D0FCF4
:1023B0004FF47A773846FEF731F96D4CDFF8A48197
:1023C000DFF8A491DFF8A4A1DFF8A8B16FF02F0621
:1023D00025464146484600F0F1F83846FEF71EF91A
:1023E000FFF7BCFF6861FF23042261496248FFF7E1
:1023F00077FA20780028ECD04F2808D161784B2953
:1024000005D1A1784F2902D1E1784B2908D0452880
:102410007ED0472813D04C2834D052280ED154E017
:10242000FFF7AAFF686902E0FFF798FF68610028DC
:10243000FAD152A0FFF74CFFFFF796FF8CE06078CF
:102440002B2802D02D280DD061E0A078E17830381B
:1024500000EB800006EB40000844FDF7BFFF594643
:1024600068600CE0A078E178303800EB800001EB88
:102470004000C0F13000FDF7B1FF5146686000F048
:102480009DF844E060782B2802D02D280DD03EE046
:10249000A078E178303800EB800006EB400008447B
:1024A000FDF79CFF5946A8600CE0A078E178303831
:1024B00000EB800001EB4000C0F13000FDF78EFF23
:1024C0005146A86000F0A2F821E060782B2802D0E5
:1024D0002D280DD01BE0A078E178303800EB80008B
:1024E00006EB40000844FDF779FF5946E8600CE030
:1024F000A078E178303800EB800001EB4000C0F1BB
:102500003000FDF76BFF5146E86000F0A3F800E0F3
:1025100003E01BA0FFF7DCFE1EE060782B2802D052
:102520002D2809D014E0A078E178303800EB800045
:1025300006EB4000084408E0A178E078303901EB70
:10254000810100EB4100C0F13000FDF747FF286139
:1025500059462869FFF7F4FE14210548FDF7F9FDF7
:1025600037E70000008026440000C8420000FAC49B
:10257000140000200000FA44200200203000000077
:1025800031000000054910F1FF4F05D2B0F5000FF2
:1025900002DA10F0FF4000D1C86070470000002050
:1025A0000549B0F5000F05DA10F1FF4F02D210F027
:1025B000FF4000D1086170470000002010B50346BD
:1025C0000A46B1F5000F05DB0846FFF7DBFF1046B2
:1025D000FFF7E6FF12F1FF4F05D31046FFF7D2FFDA
:1025E0001046FFF7DDFF08491846FDF715FEFDF719
:1025F00003FFFEF713F80020FFF7C4FFBDE810400B
:102600000020FFF7CDBF00000000604210B5044677
:102610000A460020FFF7B6FF1046FDF701FF4FF016
:1026200033320A4BFDF768FEFDF70DFFFFF7B8FFE9
:1026300007492046FDF7F0FDFDF7DEFEFDF7EEFF52
:10264000BDE810400020FFF7ABBF00003333F33F7D
:102650000000A04110B504460A460020FFF7A0FF85
:102660001046FDF7DDFE4FF033320A4BFDF744FE16
:10267000FDF7E9FEFFF786FF07492046FDF7CCFD91
:10268000FDF7BAFEFDF7CAFFBDE810400020FFF7D6
:1026900079BF00003333F33F0000A0410102020381
:1026A0000405060708090A0B0C0D0E0F1010000098
:1026B00000000000000001020304060708090000F2
:1026C0000000010203040000E826000800000020CA
:1026D00040000000002300082827000840000020D8
:1026E0002806000010230008000000000000000081
:1026F00000000000000000000000000000000000DA
:1027000000000000000000000000000000000000C9
:1027100000000000010000001000000000000000A8
:082720000024F4000000000099
:04000005080000ED02
:00000001FF
